:100000000C942A000C94E1010C940A020C94330223
:100010000C9438070C9447000C9447000C94EE02A3
:100020000C9447000C941B030C94A6020C944700FC
:100030000C9447000C9447000C9447000C94470024
:100040000C9447000C9447000C9447000C94470014
:100050000C94470011241FBECFE5D8E0DEBFCDBF12
:1000600010E0A0E6B0E0E4ECF8E102C005900D92EB
:10007000AE37B107D9F726E0AEE7B0E001C01D9278
:10008000A93EB207E1F70E9449000C94600C0C9461
:1000900000000F2EF7EEEF2EF6E0FF2EF02D02E01F
:1000A00020E030E044E650E062E670E08CEB93E064
:1000B0000E9404080F2EF5EEEF2EF6E0FF2EF02D35
:1000C00001E020E030E044E650E06CE670E08FE7CD
:1000D00093E00E9404080E943409FFCF41E066E0EB
:1000E00083E00E949200089541E066E083E00E9470
:1000F0000301089540E066E083E00E940301089553
:1001000041E067E083E00E949200089541E067E0EB
:1001100083E00E940301089540E067E083E00E94CD
:1001200003010895442319F04130C9F10895813045
:1001300091F028F08230D9F0833029F108952AB364
:1001400081E090E002C0880F991F6A95E2F78095E0
:1001500082238ABB089527B381E090E002C0880F14
:10016000991F6A95E2F78095822387BB089524B38F
:1001700081E090E002C0880F991F6A95E2F78095B0
:10018000822384BB089521B381E090E002C0880FF0
:10019000991F6A95E2F78095822381BB089581308B
:1001A00089F028F08230C9F0833011F108952AB324
:1001B00081E090E002C0880F991F6A95E2F7822BD8
:1001C0008ABB089527B381E090E002C0880F991F91
:1001D0006A95E2F7822B87BB089524B381E090E013
:1001E00002C0880F991F6A95E2F7822B84BB08959D
:1001F00021B381E090E002C0880F991F6A95E2F771
:10020000822B81BB0895442319F04130C9F1089530
:10021000813091F028F08230D9F0833029F10895AF
:100220002BB381E090E002C0880F991F6A95E2F736
:10023000809582238BBB089528B381E090E002C0B3
:10024000880F991F6A95E2F78095822388BB0895ED
:1002500025B381E090E002C0880F991F6A95E2F70C
:100260008095822385BB089522B381E090E002C08F
:10027000880F991F6A95E2F78095822382BB0895C3
:10028000813089F028F08230C9F0833011F108956F
:100290002BB381E090E002C0880F991F6A95E2F7C6
:1002A000822B8BBB089528B381E090E002C0880FB9
:1002B000991F6A95E2F7822B88BB089525B381E0E8
:1002C00090E002C0880F991F6A95E2F7822B85BBE8
:1002D000089522B381E090E002C0880F991F6A95CB
:1002E000E2F7822B82BB0895813089F028F08230BA
:1002F000C9F0833011F108952BB381E090E002C082
:10030000880F991F6A95E2F7822B8BBB089528B35B
:1003100081E090E002C0880F991F6A95E2F7822B76
:1003200088BB089525B381E090E002C0880F991F33
:100330006A95E2F7822B85BB089522B381E090E0B5
:1003400002C0880F991F6A95E2F7822B82BB08953D
:1003500095B783709C7F892B85BF8BB780648BBFDB
:100360008FB780688FBF089595B78370880F880F07
:10037000937F982B95BF8BB780688BBF8FB78068B2
:100380008FBF0895813021F484B7806484BF03C097
:1003900084B78F7B84BF8BB780628BBF8FB7806839
:1003A0008FBF089590938300809382000895909367
:1003B000810080938000089590937F0080937E0059
:1003C00008951F920F920FB60F9211242F933F930F
:1003D0004F935F936F937F938F939F93AF93BF934D
:1003E000EF93FF93E0918200F0918300309709F042
:1003F0000995FF91EF91BF91AF919F918F917F915F
:100400006F915F914F913F912F910F900FBE0F9081
:100410001F9018951F920F920FB60F9211242F93D1
:100420003F934F935F936F937F938F939F93AF937C
:10043000BF93EF93FF93E0918000F091810030979C
:1004400009F00995FF91EF91BF91AF919F918F9125
:100450007F916F915F914F913F912F910F900FBEC0
:100460000F901F9018951F920F920FB60F921124A4
:100470002F933F934F935F936F937F938F939F93AC
:10048000AF93BF93EF93FF93E0917E00F0917F00D5
:10049000309709F00995FF91EF91BF91AF919F912E
:1004A0008F917F916F915F914F913F912F910F901D
:1004B0000FBE0F901F901895BE9A97B39F7497BB6D
:1004C00024E0829FC0011124806490E2699FB00102
:1004D0001124682B6DB90895779BFECF8FB10895D5
:1004E00083B78F7B83BF83B7886083BF89B7826000
:1004F00089BF8FB780688FBF08959C01AAEFB0E0D5
:100500000E94510C6F3F71058105910581F078F0D3
:100510002FEF30E040E050E00E942F0C3093870036
:10052000209386006FEF70E080E090E006C021E04D
:1005300030E030938700209386006CBF10928500D6
:100540001092840083B7836083BF08951F920F9237
:100550000FB60F9211242F933F934F935F936F9396
:100560007F938F939F93AF93BF93EF93FF9380916C
:10057000840090918500019690938500809384007B
:1005800020918600309187008217930758F0E09100
:100590008800F0918900309709F009951092850044
:1005A00010928400FF91EF91BF91AF919F918F9135
:1005B0007F916F915F914F913F912F910F900FBE5F
:1005C0000F901F90189582E08FBD88E18EBD8FB58A
:1005D00080688FBD8EB584608EBD08951F920F9286
:1005E0000FB60F9211242F933F934F935F936F9306
:1005F0007F938F939F93AF93BF93EF93FF9310924B
:100600008B0010928A00E0919200F0919300309755
:1006100009F00995FF91EF91BF91AF919F918F9153
:100620007F916F915F914F913F912F910F900FBEEE
:100630000F901F9018951F920F920FB60F921124D2
:100640002F933F934F935F936F937F938F939F93DA
:10065000AF93BF93EF93FF9310928C0010928D0095
:1006600010928E0010928F00E0919000F091910016
:10067000309709F00995FF91EF91BF91AF919F914C
:100680008F917F916F915F914F913F912F910F903B
:100690000FBE0F901F90189590E09BBD8ABD0895E6
:1006A0002227362F472F582F60E074E284EF90E026
:1006B0000E942F0CDA01C9010197A109B10997BD68
:1006C00086BD089580919500811104C081E08093DA
:1006D00095000895109295000895809195008823C3
:1006E00021F00E9474000E948C0008958091950072
:1006F000882321F00E9486000E947A0008950F2E20
:10070000F2E3CF2ED12CE12CF12CF02D809195002D
:100710008FB90E946C028093940084E690E00E945E
:10072000630B0E946C028093600080919400282FDC
:1007300030E0AFEFB0E00E94510CA70196010E949B
:100740002F0C822F0E944C038091950081110FC0C5
:100750009091940080916000981728F00E94740096
:100760000E948C0004C00E9486000E947A0088EEDD
:1007700093E00E94630BCACF60E081E00E945C02BC
:100780000E94700288EE93E00E947D020E946E003B
:100790000E94800081E00E94A80163E083E00E9443
:1007A000740162E081E00E94740182E00E94B40161
:1007B00080E00E94C20182E693E00E94D2018DE6B1
:1007C00093E00E94D70186E793E00E94DC010E943B
:1007D000E30264EF71E080E090E00E94500384E661
:1007E0000E944C0341E065E083E00E94920020916A
:1007F000940030E0AFEFB0E00E94510C22E330E013
:1008000040E050E00E942F0C822F0E944C0380E0B9
:1008100090E00E94DD0B0895CF93DF93DC01EEE9B9
:10082000F0E001C0F901208131812A173B07D0F3A4
:10083000EF0182819381AF01480F591F4A175B076F
:1008400051F4DA0112964D915C911397840F951F24
:1008500093838283DF0112968D919C911397FD0102
:10086000E80FF91FE217F307D9F420919C003091AB
:100870009D00E217F30781F022813381820F931FDD
:1008800013969C938E931297E881F98180819181D0
:1008900011969C938E9307C01196FC93EE9303C020
:1008A00011963C932E93CA17DB0711F0B983A883E6
:1008B000DF91CF910895CF92DF92EF92FF920F9345
:1008C0001F93CF93DF93EC010E94600980919C00FD
:1008D00090919D00892B99F5AEE9B0E042EA50E095
:1008E00011965C934E9313961C921E921297CA0116
:1008F000052E000CAA0BBB0B88529A4FAF4FBF4F6F
:100900009C0190939D0080939C00FC0113821282B5
:1009100011821082225A3040FA013383228391835C
:100920008083309399002093980030939B0020930C
:100930009A0080E090E89093970080939600E09072
:100940009600F0909700CE018E219F21892B09F00F
:100950005FC0209709F45FC0AE014C5F5F4F09F4A0
:100960005DC000919A0010919B000417150708F4D0
:1009700058C0C0919E00D0919F00EEE9F0E002C007
:10098000FE01E9012A813B812417350728F42881DB
:10099000398121153105A1F780919C0090919D002E
:1009A000C817D90709F440C0C080D18084E0C80EC0
:1009B000D11C88819981918380832A813B81241B6A
:1009C000350B2930310550F0CE01840F951FFC0105
:1009D000338322835B834A830E940C048A819B8138
:1009E000081B190B10939B0000939A00209198000C
:1009F000309199000217130720F410939900009387
:100A00009800E82AF92AFB82EA82198218820EC02D
:100A1000C12CD12C0BC0C12CD12C08C0C12CD12C85
:100A200005C0C12CD12C02C0C12CD12C0E94850A3A
:100A3000C601DF91CF911F910F91FF90EF90DF9052
:100A4000CF900895CF93DF93009759F1FC0134972D
:100A5000228133814091960050919700BA01622320
:100A60007323672BF1F060817181672BD1F4EF0163
:100A70004095509524233523338322830E946009B7
:100A800020919A0030919B008A819B81820F931F55
:100A900090939B0080939A00CE010E940C040E94C8
:100AA000850ADF91CF910895FC010396928381839B
:100AB0002FEF3FEF3483238396838583908787834B
:100AC00010820895FC01118610860895CF93DF935C
:100AD0009C01FB01DC011196CD91DC911297D3832F
:100AE000C2838C819D81958384838C819D81DC016F
:100AF00013967C936E9312977D836C833187208746
:100B0000F90180818F5F8083DF91CF910895CF932A
:100B1000DF93EB01488159814F3F2FEF520721F4BA
:100B2000FC01A781B0850DC0DC01139601C0DF0177
:100B30001296ED91FC911397208131814217530752
:100B4000B0F71296ED91FC911397FB83EA83D5835E
:100B5000C483BD83AC831396DC93CE93129799879D
:100B60008887FC0120812F5F2083DF91CF9108953A
:100B7000CF93DF93FC01A085B185C281D3818481AD
:100B800095819D838C83C481D581828193819B8350
:100B90008A831196CD91DC911297CE17DF0731F43D
:100BA0008C819D8112969C938E931197118610864D
:100BB0008C9181508C938C91DF91CF91089531E18C
:100BC000FC013083319722E220833197A3E3A08395
:100BD000319760833197708331971082319760E845
:100BE000608331971082319762E06083319763E0D0
:100BF0006083319764E06083319765E0608331976B
:100C000066E06083319767E06083319768E06083D6
:100C1000319769E06083319760E160833197308379
:100C2000319732E13083319733E13083319734E1CA
:100C30003083319735E13083319736E13083319716
:100C400037E13083319738E13083319739E13083B0
:100C5000319730E23083319731E23083319720830E
:100C6000319723E220833197408331975083319726
:100C700026E22083319727E22083319728E22083E0
:100C8000319729E22083319720E32083319721E3B4
:100C900020838697089589EF83BD85B5886085BDDB
:100CA00085B5846085BD89B7806889BFA091E3065A
:100CB000B091E406CD91CDBFDD91DEBFFF91EF9104
:100CC000DF91CF91BF91AF919F918F917F916F9164
:100CD0005F914F913F912F911F910F91FF90EF9056
:100CE000DF90CF90BF90AF909F908F907F906F904C
:100CF0005F904F903F902F901F900F900FBE0F90DE
:100D0000089581E008950F920FB6F8940F921F9204
:100D100011242F923F924F925F926F927F928F9207
:100D20009F92AF92BF92CF92DF92EF92FF920F937A
:100D30001F932F933F934F935F936F937F938F9363
:100D40009F93AF93BF93CF93DF93EF93FF93A091C4
:100D5000E306B091E4060DB60D920EB60D920E9418
:100D6000770BA091E306B091E406CD91CDBFDD9164
:100D7000DEBFFF91EF91DF91CF91BF91AF919F9136
:100D80008F917F916F915F914F913F912F911F9123
:100D90000F91FF90EF90DF90CF90BF90AF909F901A
:100DA0008F907F906F905F904F903F902F901F900B
:100DB0000F900FBE0F9008950F920FB6F8940F92F8
:100DC0001F9211242F923F924F925F926F927F92C7
:100DD0008F929F92AF92BF92CF92DF92EF92FF924B
:100DE0000F931F932F933F934F935F936F937F9333
:100DF0008F939F93AF93BF93CF93DF93EF93FF9323
:100E0000A091E306B091E4060DB60D920EB60D92D8
:100E10000E94660981110E94770BA091E306B091B0
:100E2000E406CD91CDBFDD91DEBFFF91EF91DF9163
:100E3000CF91BF91AF919F918F917F916F915F9172
:100E40004F913F912F911F910F91FF90EF90DF9065
:100E5000CF90BF90AF909F908F907F906F905F905A
:100E60004F903F902F901F900F900FBE0F900895BE
:100E70000E94DC061895E091AB06F091AC068081EB
:100E8000811107C08FEF9FEF9093820680938106B8
:100E90000895E091AB06F091AC060580F681E02D57
:100EA000808191819093820680938106089507E95D
:100EB00016E0809196068823E1F30FB6F8940F921E
:100EC000D8011596ED91FC911697C681D781CE0178
:100ED00002960E94B80580918C06815080938C0602
:100EE000809196068150809396060F900FBE8F8951
:100EF000988D0E942205CE010E94220580919606BF
:100F00008111DBCFD6CFFF920F931F93CF93DF9347
:100F1000EC01F62E00918A0610918B068091E30673
:100F20009091E40602960E94B805CF3F8FEFD80754
:100F3000B1F5FF20A1F1EDE8F6E0A181B281C09109
:100F4000E306D091E406BD83AC83C091E306D09163
:100F5000E40614968D919C9115979F838E83149629
:100F6000CD91DC9115978091E3069091E40602966D
:100F70009B838A838091E3069091E40602961596FE
:100F80009C938E931497A091E306B091E4061B9670
:100F9000FC93EE931A9780818F5F80832FC0C00FE0
:100FA000D11FE091E306F091E406D383C283C0171A
:100FB000D10768F46091E3067091E4068091A90678
:100FC0009091AA066E5F7F4F0E94870517C06091BF
:100FD000E3067091E4068091AB069091AC066E5FDB
:100FE0007F4F0E9487058091810690918206C817E5
:100FF000D90720F4D0938206C0938106DF91CF9168
:101000001F910F91FF9008954F925F926F927F9280
:101010008F929F92AF92BF92CF92DF92EF92FF9208
:101020000F93CF93DF934C016B015A012901CA0141
:101030000E945B043C01892B09F405C18EE290E01B
:101040000E945B04EC01892B81F08EE2DE011D928F
:101050008A95E9F7788E6F8AB1E0AB1AB1086A0C0D
:101060007B1CC114D10429F41EC0C3010E942205B7
:10107000EAC0F6018081898F8081882399F0AE01D2
:10108000465E5F4F319680E1C80ED11CCF012191A1
:10109000DA012D93AD01DC018C91882319F0EC1558
:1010A000FD05A1F718A6043008F003E00E8B6E01D1
:1010B000B2E0CB0ED11CC6010E946205CE010C9697
:1010C0000E946205D987C88784E090E0801B91095F
:1010D0009D878C87DB8BCA8BA201B401C3010E9460
:1010E000DF0599838883E114F10419F0F701D183B6
:1010F000C0830FB6F8940F9280918C068F5F809317
:101100008C068091E3069091E406892BD1F5D0936B
:10111000E406C093E30680918C06813009F041C05B
:101120008FEB96E00E94540588EC96E00E945405EF
:1011300081ED96E00E9454058AED96E00E945405E8
:1011400086EB96E00E9454058DEA96E00E945405D5
:1011500080EA96E00E94540587E996E00E945405D3
:101160008DE896E00E94540586EB96E09093AC06DD
:101170008093AB068DEA96E09093AA068093A90629
:1011800010C08091880681110CC0E091E306F091B7
:10119000E40696898E89891720F0D093E406C093DF
:1011A000E306809183068F5F809383068E899091FA
:1011B0008906981710F48093890690E0FC01EE0FE1
:1011C000FF1FEE0FFF1FEE0FFF1F8E0F9F1FFC0173
:1011D000E154F94F0180F281E02DFD83EC8384819D
:1011E00095819F838E83A481B5811396DC92CE92E4
:1011F0001297D582C4828E8990E0FC01EE0FFF1F0A
:10120000EE0FFF1FEE0FFF1FE80FF91FE154F94F1C
:10121000FB87EA8780818F5F80830F900FBE80916C
:101220008806882361F0E091E306F091E406968950
:101230008E89981730F40E94830681E005C081E012
:1012400003C081E001C08FEFDF91CF910F91FF903C
:10125000EF90DF90CF90BF90AF909F908F907F9056
:101260006F905F904F900895EF92FF920F930F2E23
:10127000FFE7EF2EF6E0FF2EF02D00E020E030E05B
:1012800045E550E069E770E087E597E00E940408D3
:10129000813081F4F8948FEF9FEF909382068093D2
:1012A000810681E08093880610928B0610928A0650
:1012B0000E944B06809161000F91FF90EF9008957E
:1012C00080917E068F5F80937E060895EF92FF9255
:1012D0000F931F93CF93DF9380917E06811104C1FA
:1012E000C0918A06D0918B067E018FEFE81AF80A2A
:1012F000F0928B06E0928A06E114F104B9F4809131
:10130000AB069091AC062091A9063091AA063093C5
:10131000AC062093AB069093AA068093A906809111
:1013200084068F5F809384060E943B07809181062C
:1013300090918206E816F90610F480E0B9C080E0CA
:1013400061E0E091AB06F091AC069081911107C08D
:101350002FEF3FEF3093820620938106A9C0E091E2
:10136000AB06F091AC060580F681E02D0680F78192
:10137000E02D22813381E216F30628F430938206B1
:101380002093810695C0A285B3852481358146814D
:101390005781E9015D834C832681378144815581E2
:1013A000E9015B834A83AF014E5F5F4F11962D9138
:1013B0003C9112972417350731F426813781129614
:1013C0003C932E931197138612869C9191509C9377
:1013D000A489B589109719F1268537850089118967
:1013E000E9011D830C832089318906851785E90170
:1013F0001B830A8311960D911C9112979F01245F04
:101400003F4F0217130731F42089318912963C931C
:101410002E931197158A148A9C9191509C9326893A
:1014200090918906921710F42093890630E0D90133
:10143000AA0FBB1FAA0FBB1FAA0FBB1F2A0F3B1F60
:10144000D901A154B94F11960D90BC91A02DB5832F
:10145000A48314962D913C91159737832683149677
:101460002D913C911597E9015B834A8315965C9316
:101470004E931497A689B0E09D01220F331F220FCF
:10148000331F220F331FA20FB31FA154B94FB387CD
:10149000A2879C919F5F9C93A091E306B091E40684
:1014A000268956969C91921708F04BCF862F49CFEC
:1014B000E091E306F091E406268930E0F901EE0FB1
:1014C000FF1FEE0FFF1FEE0FFF1F2E0F3F1FF90133
:1014D000E154F94F9081923008F081E090918506B7
:1014E000992361F081E00AC0809186069091870679
:1014F0000196909387068093860680E0DF91CF91D6
:101500001F910F91FF90EF9008951F93CF93DF935A
:101510000FB6F8940F9280917E06815080937E06DC
:1015200080917E068111C6C080918C0681119BC07E
:10153000C4C0DB011596ED91FC9116970680F781EA
:10154000E02DA489B5898685978520893189EC01AC
:101550003D832C838089918926853785EC013B83E7
:101560002A83CF010C9611962D913C911297281742
:10157000390731F48089918912969C938E93119743
:10158000158A148A8C9181508C93A285B3858481AD
:10159000958126813781EC013D832C83868197815B
:1015A00024813581EC013B832A839F012E5F3F4FCD
:1015B00011968D919C9112978217930731F4868131
:1015C000978112969C938E931197138612868C9115
:1015D00081508C93868990918906981710F4809396
:1015E000890690E0DC01AA0FBB1FAA0FBB1FAA0F40
:1015F000BB1F8A0F9B1FDC01A154B94F11960D90A0
:10160000BC91A02DB583A48314968D919C911597C0
:101610009783868314968D919C911597EC013B835B
:101620002A8315963C932E931497A689B0E0CD019A
:10163000880F991F880F991F880F991FA80FB91F2E
:10164000A154B94FB387A2878C918F5F8C93A091DF
:10165000E306B091E406968956968C91981740F06F
:101660004093850605C0E0E0F0E060EA76E041E006
:10167000DB018C9181115DCFEF2B11F00E943B07B4
:10168000C0918606D0918706209761F011E00E94F4
:1016900066098111109385062197C9F71092870674
:1016A0001092860680918506882331F00E94830679
:1016B00081E003C080E001C080E00F900FBEDF91A9
:1016C000CF911F910895CF93DF93EC01892B51F0B7
:1016D0000E94600960E0CE010E9483070E94850A93
:1016E000811102C00E948306DF91CF9108958091FD
:1016F0007E06882321F081E080938506089510926C
:10170000850620918906822F90E0FC01EE0FFF1FD5
:10171000EE0FFF1FEE0FFF1FE80FF91FE154F94F07
:101720003081311111C02150822F90E0FC01EE0F69
:10173000FF1FEE0FFF1FEE0FFF1FE80FF91FE15411
:10174000F94F3081332379F3AC01440F551F440F17
:10175000551F440F551F480F591FDA01A154B94FA7
:101760001196ED91FC9112970280F381E02D129673
:10177000FC93EE9311974E53594FE417F50729F454
:1017800042815381FD0152834183FC01EE0FFF1F13
:10179000EE0FFF1FEE0FFF1F8E0F9F1FFC01E15486
:1017A000F94F0180F281E02D868197819093E406C4
:1017B0008093E3062093890608950F931F93CF9398
:1017C000DF93EC010FB6F8940F92892B21F4C091AE
:1017D000E306D091E4068E010E5F1F4FC8010E9400
:1017E000B8058C899D89892B21F0CE010C960E9429
:1017F000B805B8018DE896E00E9466058DA5813098
:1018000009F41DA60F900FBE80918806882339F039
:101810000FB6F8940F920E943B070F900FBE809175
:10182000E3069091E406C817D907A1F480918806D1
:10183000882319F00E9483060DC090918D06809137
:101840008C06981305C01092E4061092E30602C0BD
:101850000E94770BDF91CF911F910F910895A1E224
:101860001A2EAA1BBB1BFD010DC0AA1FBB1FEE1F1A
:10187000FF1FA217B307E407F50720F0A21BB30B65
:10188000E40BF50B661F771F881F991F1A9469F7E1
:1018900060957095809590959B01AC01BD01CF013D
:1018A0000895A29FB001B39FC001A39F700D811D39
:1018B0001124911DB29F700D811D1124911D089559
:0418C000F894FFCFCA
:1018C4001C03496E6974205461736B00526563692B
:0E18D400657665205461736B0049444C4500F5
:00000001FF
