:100000000C942A000C94EE030C9417040C944004F6
:100010000C9447000C9447000C9447000C94470044
:100020000C9447000C9447000C94C6040C944700B1
:100030000C9447000C9447000C9447000C94470024
:100040000C9447000C9447000C9447000C94470014
:100050000C94470011241FBECFE5D8E0DEBFCDBF12
:1000600010E0A0E6B0E0E6E2FEE002C005900D92EE
:10007000AC3AB107D9F720E0ACEAB0E001C01D927C
:10008000AA3BB207E1F70E945D000C9411070C94A3
:1000900000008091AC000E9486048093AD002FEF99
:1000A00081EE94E0215080409040E1F700C00000D4
:1000B000809160000E948204089543E060E081E046
:1000C0000E9469040E948B0488EE93E00E949804C9
:1000D00089E490E00E94C1040E94AB010E947C026E
:1000E0000E94CE000E941B018334A1F41092600094
:1000F0000E941B018823E1F38D3361F09091600031
:10010000990F292F220F220F920F9053890F80935E
:100110006000EECF60E080E00E94640281E690E043
:100120000E9432020E947F028093AC0060E081E076
:100130000E9464026091AC0070E080E090E00E9458
:10014000470260E082E00E94640286E790E00E943D
:1001500032026DE082E00E9464026091600070E013
:1001600080E090E00E94470260E083E00E94640229
:1001700082E890E00E9432026CE083E00E94640218
:100180008091AD00882329F08EE890E00E94320231
:10019000A9CF85E990E00E943202A4CF41E060E05F
:1001A00083E00E94AA0241E061E083E00E94AA028B
:1001B00041E062E083E00E94AA0241E063E083E064
:1001C0000E94AA0241E060E083E00E941B0341E03C
:1001D00061E083E00E941B0341E062E083E00E9453
:1001E0001B0341E063E083E00E941B0340E064E006
:1001F00083E00E94AA0240E065E083E00E94AA0238
:1002000040E066E083E00E94AA0240E067E083E00D
:100210000E94AA0264E083E00E94BA0365E083E0E2
:100220000E94BA0366E083E00E94BA0367E083E0BD
:100230000E94BA030895CF92DF92EF92FF920F933C
:100240001F93CF93DF930F2EFCE9EF2EF0E0FF2EEC
:10025000F02DD0E0D12C6894CC24C2F840E06D2F72
:1002600083E00E941B038701CC2D6C2F83E00E944A
:100270008C0381110EC0F801D0806C2F83E00E94A6
:100280008C038823D1F38FE39CE90197F1F700C039
:100290000000CF5F0C5F1F4FC83039F741E06D2F72
:1002A00083E00E941B03DF5F9FEFE91AF90AD43055
:1002B000A9F68D2DDF91CF911F910F91FF90EF90B7
:1002C000DF90CF900895CF93C82F40E062E081E0A7
:1002D0000E941B0340E061E081E00E941B0340E0BC
:1002E00060E081E00E941B038BB39C2F907F8F7096
:1002F000892B8BBB41E060E081E00E941B038FE90A
:100300009FE00197F1F700C0000040E060E081E06D
:100310000E941B032BB330E1C39FC0011124922F15
:100320009F70892B8BBB41E060E081E00E941B0342
:100330008FE99FE00197F1F700C0000040E060E026
:1003400081E00E941B038FE39FE10197F1F700C05A
:100350000000CF91089541E064E080E00E94AA028D
:1003600041E065E080E00E94AA0241E066E080E0B2
:100370000E94AA0241E067E080E00E94AA0241E0F8
:1003800062E081E00E94AA0241E061E081E00E9417
:10039000AA0241E060E081E00E94AA0283E30E9499
:1003A000630182E30E94630188E20E94630181E0AD
:1003B0000E94630182E00E94630186E00E94630163
:1003C0008CE00E9463018FE39FE10197F1F700C089
:1003D00000000895CF93C82F41E062E081E00E94C1
:1003E0001B0340E061E081E00E941B0340E060E00D
:1003F00081E00E941B038BB39C2F907F8F70892B11
:100400008BBB41E060E081E00E941B038FE99FE02D
:100410000197F1F700C0000040E060E081E00E9439
:100420001B032BB330E1C39FC0011124922F9F7097
:10043000892B8BBB41E060E081E00E941B038FE9C8
:100440009FE00197F1F700C0000040E060E081E02C
:100450000E941B038FE39FE10197F1F700C00000AA
:10046000CF910895CF93DF93EC018881882361F0C9
:1004700021960E94EA018FE39CE90197F1F700C001
:10048000000089918111F5CFDF91CF910895CF932D
:10049000DF93CDB7DEB72A970FB6F894DEBF0FBE55
:1004A000CDBF2AE0AE014F5F5F4F0E94D006CE0164
:1004B00001960E9432022A960FB6F894DEBF0FBE54
:1004C000CDBFDF91CF910895813049F028F082307F
:1004D00049F0833051F00CC080E8860F0AC080ECF0
:1004E000860F07C084E9860F04C084ED860F01C023
:1004F00080E00E94630108950E949702089582E0BF
:100500000E949C02BC0180E090E00E94A40520E0D3
:1005100030E44CE950E40E94320620E030E040E252
:1005200051E40E9403050E947505CB01089580E403
:1005300087B987E886B9089597B18770987F892B26
:1005400087B9369A3499FECF349A84B125B190E0B8
:10055000922B0895442319F04130C9F10895813058
:1005600091F028F08230D9F0833029F108952AB330
:1005700081E090E002C0880F991F6A95E2F78095AC
:1005800082238ABB089527B381E090E002C0880FE0
:10059000991F6A95E2F78095822387BB089524B35B
:1005A00081E090E002C0880F991F6A95E2F780957C
:1005B000822384BB089521B381E090E002C0880FBC
:1005C000991F6A95E2F78095822381BB0895813057
:1005D00089F028F08230C9F0833011F108952AB3F0
:1005E00081E090E002C0880F991F6A95E2F7822BA4
:1005F0008ABB089527B381E090E002C0880F991F5D
:100600006A95E2F7822B87BB089524B381E090E0DE
:1006100002C0880F991F6A95E2F7822B84BB089568
:1006200021B381E090E002C0880F991F6A95E2F73C
:10063000822B81BB0895442319F04130C9F10895FC
:10064000813091F028F08230D9F0833029F108957B
:100650002BB381E090E002C0880F991F6A95E2F702
:10066000809582238BBB089528B381E090E002C07F
:10067000880F991F6A95E2F78095822388BB0895B9
:1006800025B381E090E002C0880F991F6A95E2F7D8
:100690008095822385BB089522B381E090E002C05B
:1006A000880F991F6A95E2F78095822382BB08958F
:1006B000813089F028F08230C9F0833011F108953B
:1006C0002BB381E090E002C0880F991F6A95E2F792
:1006D000822B8BBB089528B381E090E002C0880F85
:1006E000991F6A95E2F7822B88BB089525B381E0B4
:1006F00090E002C0880F991F6A95E2F7822B85BBB4
:10070000089522B381E090E002C0880F991F6A9596
:10071000E2F7822B82BB0895813079F028F0823095
:10072000A9F08330E1F024C089B390E002C0959530
:1007300087956A95E2F78170089586B390E002C0CC
:10074000959587956A95E2F78170089583B390E057
:1007500002C0959587956A95E2F78170089580B3F8
:1007600090E002C0959587956A95E2F781700895AB
:1007700080E00895813089F028F08230C9F083301C
:1007800011F108952BB381E090E002C0880F991F0A
:100790006A95E2F7822B8BBB089528B381E090E045
:1007A00002C0880F991F6A95E2F7822B88BB0895D3
:1007B00025B381E090E002C0880F991F6A95E2F7A7
:1007C000822B85BB089522B381E090E002C0880FA0
:1007D000991F6A95E2F7822B82BB08951F920F92B0
:1007E0000FB60F9211242F933F934F935F936F9304
:1007F0007F938F939F93AF93BF93EF93FF93E0917A
:10080000B200F091B300309709F00995FF91EF9194
:10081000BF91AF919F918F917F916F915F914F9118
:100820003F912F910F900FBE0F901F9018951F9220
:100830000F920FB60F9211242F933F934F935F9314
:100840006F937F938F939F93AF93BF93EF93FF9398
:10085000E091B000F091B100309709F00995FF9157
:10086000EF91BF91AF919F918F917F916F915F9128
:100870004F913F912F910F900FBE0F901F901895A1
:100880001F920F920FB60F9211242F933F934F9305
:100890005F936F937F938F939F93AF93BF93EF93E8
:1008A000FF93E091AE00F091AF00309709F0099509
:1008B000FF91EF91BF91AF919F918F917F916F9138
:1008C0005F914F913F912F910F900FBE0F901F900E
:1008D000189597B3906A97BBBE98BC9A242F237043
:1008E000206534E0839FC0011124822B90E2699F30
:1008F000B0011124682B6DB942FF02C0709A0895AF
:10090000709808958FB9779BFECF08958FB9779B24
:10091000FECF8FB1089583B78F7B83BF83B7886085
:1009200083BF89B7826089BF8FB780688FBF089502
:100930009C01AAEFB0E00E94C1066F3F71058105DE
:10094000910581F078F02FEF30E040E050E00E9418
:100950009F063093B7002093B6006FEF70E080E001
:1009600090E006C021E030E03093B7002093B6005D
:100970006CBF1092B5001092B40083B7836083BF40
:1009800008959093B9008093B80008951F920F9234
:100990000FB60F9211242F933F934F935F936F9352
:1009A0007F938F939F93AF93BF93EF93FF93809128
:1009B000B4009091B50001969093B5008093B40077
:1009C0002091B6003091B7008217930758F0E0915C
:1009D000B800F091B900309709F009951092B50070
:1009E0001092B400FF91EF91BF91AF919F918F91C1
:1009F0007F916F915F914F913F912F910F900FBE1B
:100A00000F901F9018950E9417050C94F8050E94EE
:100A1000F10558F00E94EA0540F029F45F3F29F003
:100A20000C94E10551110C942C060C94E7050E94DE
:100A3000090668F39923B1F3552391F3951B550BE0
:100A4000BB27AA2762177307840738F09F5F5F4FA1
:100A5000220F331F441FAA1FA9F335D00E2E3AF0E0
:100A6000E0E832D091505040E695001CCAF72BD0F8
:100A7000FE2F29D0660F771F881FBB1F2617370749
:100A80004807AB07B0E809F0BB0B802DBF01FF277B
:100A900093585F4F3AF09E3F510578F00C94E10572
:100AA0000C942C065F3FE4F3983ED4F3869577953B
:100AB0006795B795F7959F5FC9F7880F911D969534
:100AC000879597F90895E1E0660F771F881FBB1F90
:100AD000621773078407BA0720F0621B730B840B3D
:100AE000BA0BEE1F88F7E09508950E94110688F072
:100AF0009F5798F0B92F9927B751B0F0E1F0660FE2
:100B0000771F881F991F1AF0BA95C9F714C0B13022
:100B100091F00E942B06B1E008950C942B06672FEC
:100B2000782F8827B85F39F0B93FCCF38695779551
:100B30006795B395D9F73EF490958095709561953A
:100B40007F4F8F4F9F4F0895E89409C097FB3EF465
:100B500090958095709561957F4F8F4F9F4F99230A
:100B6000A9F0F92F96E9BB279395F6958795779588
:100B70006795B795F111F8CFFAF4BB0F11F460FF48
:100B80001BC06F5F7F4F8F4F9F4F16C0882311F0A0
:100B900096E911C0772321F09EE8872F762F05C0B4
:100BA000662371F096E8862F70E060E02AF09A954F
:100BB000660F771F881FDAF7880F9695879597F944
:100BC000089597F99F6780E870E060E008959FEFCF
:100BD00080EC089500240A941616170618060906D4
:100BE000089500240A9412161306140605060895A3
:100BF000092E0394000C11F4882352F0BB0F40F42B
:100C0000BF2B11F460FF04C06F5F7F4F8F4F9F4F6A
:100C1000089557FD9058440F551F59F05F3F71F0EC
:100C20004795880F97FB991F61F09F3F79F0879553
:100C30000895121613061406551FF2CF4695F1DFDC
:100C400008C0161617061806991FF1CF869571056C
:100C5000610508940895E894BB2766277727CB01A0
:100C600097F908950E9445060C94F8050E94EA053C
:100C700038F00E94F10520F0952311F00C94E10565
:100C80000C94E70511240C942C060E94090670F3BD
:100C9000959FC1F3950F50E0551F629FF001729F21
:100CA000BB27F00DB11D639FAA27F00DB11DAA1F30
:100CB000649F6627B00DA11D661F829F2227B00D7D
:100CC000A11D621F739FB00DA11D621F839FA00D08
:100CD000611D221F749F3327A00D611D231F849F58
:100CE000600D211D822F762F6A2F11249F575040AF
:100CF0009AF0F1F088234AF0EE0FFF1FBB1F661F2A
:100D0000771F881F91505040A9F79E3F510580F0F2
:100D10000C94E1050C942C065F3FE4F3983ED4F369
:100D2000869577956795B795F795E7959F5FC1F796
:100D3000FE2B880F911D9695879597F90895A1E24E
:100D40001A2EAA1BBB1BFD010DC0AA1FBB1FEE1F45
:100D5000FF1FA217B307E407F50720F0A21BB30B90
:100D6000E40BF50B661F771F881F991F1A9469F70C
:100D700060957095809590959B01AC01BD01CF0168
:100D80000895A29FB001B39FC001A39F700D811D64
:100D90001124911DB29F700D811D1124911D089584
:100DA000BB272A3051F4992342F4BDE290958095F7
:100DB000709561957F4F8F4F9F4F0C94E006BB2736
:100DC000FA01A62F6217710581059105330B30FBDF
:100DD00066F0AA27660F771F881F991FAA1FA21700
:100DE00010F0A21B63953850A9F7A05DAA3308F054
:100DF000A95DA19336F7B111B1931082CA010C9489
:100E00000107DC01FC01672F71917723E1F732972D
:100E100004C07C916D9370836291AE17BF07C8F3D5
:060E20000895F894FFCFD5
:100E26001C43757272656E742074656D70657261AF
:100E3600747572653A005468726573686F6C643ACB
:100E4600200073776974636820666F7220004175AD
:100E5600746F2020004D616E75616C00373431432C
:0C0E6600383532303936333D2F2A2D2B21
:00000001FF
